:020000040000FA
:0400000006EF00F017
:100008000AED00F014EEFAF034EF0BF00600E9CF39
:1000180069F0EACF6AF0E1CF6BF0E2CF6CF0D9CFAC
:100028006DF0DACF6EF0F3CF6FF0F4CF70F047C019
:1000380071F048C072F04DC073F04EC074F04FC0FC
:1000480075F050C076F051C077F052C078F015EED8
:1000580052F0F29EF2A2DDD0F29281B225D0130EB8
:10006800E66E000EE66E63EC07F0828083AE02D087
:10007800010E01D0000EFF0A676E673267328350A7
:1000880067187F0B6718836E0B6A0C6A076A086A21
:10009800096A0A6A056A066A036A046A130EE66E42
:1000A800000EE66E68EC06F081B442D082820B0442
:1000B8000C10D8A411D02F0EE66E000EE66E63EC7D
:1000C80007F00A0E0926000E0A222F0EE66E000E11
:1000D800E66E68EC06F02CD0210EE66E000EE66E99
:1000E80063EC07F00A0E0726000E08220A0EE66ED9
:1000F800000EE66E07C0E6FF08C0E6FF60EC0AF0F7
:1001080047C003F048C004F00A0EE66E000EE66E23
:1001180007C0E6FF08C0E6FFD5EC09F047C005F0C8
:1001280048C006F0210EE66E000EE66E68EC06F09A
:1001380081B642D082840B040C10D8A411D02F0EA3
:10014800E66E000EE66E63EC07F03C0E0926000E24
:100158000A222F0EE66E000EE66E68EC06F02CD032
:10016800210EE66E000EE66E63EC07F03C0E0726E5
:10017800000E08220A0EE66E000EE66E07C0E6FFC5
:1001880008C0E6FF60EC0AF047C003F048C004F07E
:100198000A0EE66E000EE66E07C0E6FF08C0E6FF30
:1001A800D5EC09F047C005F048C006F0210EE66E10
:1001B800000EE66E68EC06F081A896D2130EE66E85
:1001C800000EE66E63EC07F00B6A0C6A130EE66E1F
:1001D800000EE66E68EC06F0210EE66E000EE66E86
:1001E80063EC07F02F0EE66E000EE66E63EC07F088
:1001F80009C007F00AC008F02F0EE66E000EE66E82
:1002080068EC06F0210EE66E000EE66E68EC06F06D
:100218006BD2F2A469D295EC0BF0F294FC0ED66E78
:10022800E0EC05F00B040C10D8A454D0014A022AC3
:10023800FA0E01180210D8A44DD02F0EE66E000E4B
:10024800E66E63EC07F00906D8A00A060A0EE66E09
:10025800000EE66E09C0E6FF0AC0E6FF60EC0AF091
:1002680047C003F048C004F00A0EE66E000EE66EC2
:1002780009C0E6FF0AC0E6FFD5EC09F047C005F063
:1002880048C006F02F0EE66E000EE66E68EC06F02B
:10029800016A026A09500A10D8A41CD0130EE66E2F
:1002A800000EE66E63EC07F0210EE66E000EE66EB9
:1002B80063EC07F00B6A0C6A076A086A210EE66E9F
:1002C800000EE66E68EC06F0130EE66E000EE66EA3
:1002D80068EC06F07906D8A07A067ABE05D07A507E
:1002E80002E17904D8B0FDD1000E7A6E0A0E796E5B
:1002F800F8C211F0F9C212F06C0EE66E000EE66E4E
:1003080011C0E6FF12C0E6FFF8EC08F0E20E472441
:10031800D96E000E4820DA6E000EDF6E6C0EE66EA7
:10032800000EE66E11C0E6FF12C0E6FFF8EC08F01A
:10033800DF0E4724D96E000E4820DA6EE8CFDFFFC3
:100348006C0EE66E000EE66E11C0E6FF12C0E6FF08
:10035800F8EC08F0E00E4724D96E000E4820DA6E5B
:10036800D8CFDFFF6C0EE66E000EE66E11C0E6FF1A
:1003780012C0E6FFF8EC08F0E10E4724D96E000E33
:100388004820DA6EE0CFDFFF0F6A106A7BD06C0E70
:10039800E66E000EE66E11C0E6FF12C0E6FFF8EC4E
:1003A80008F0DA0E676E000E686E090E6726000EFA
:1003B80068224750672648506822030EE66E000EF2
:1003C800E66E0FC0E6FF10C0E6FFF8EC08F04750F5
:1003D8006724D96E48506820DA6EFFCFDFFF6C0EB5
:1003E800E66E000EE66E11C0E6FF12C0E6FFF8ECFE
:1003F80008F0DA0E676E000E686E0B0E6726000EA8
:1004080068224750672648506822030EE66E000EA1
:10041800E66E0FC0E6FF10C0E6FFF8EC08F04750A4
:100428006724D96E48506820DA6EFECFDFFF6C0E65
:10043800E66E000EE66E11C0E6FF12C0E6FFF8ECAD
:1004480008F0DA0E676E000E686E0A0E6726000E58
:1004580068224750672648506822030EE66E000E51
:10046800E66E0FC0E6FF10C0E6FFF8EC08F0475054
:100478006724D96E48506820DA6EFDCFDFFF0F4A37
:10048800102A0600FC50D8A482D76C0EE66E000E27
:10049800E66E11C0E6FF12C0E6FFF8EC08F0400E69
:1004A8004724D96E010E4820DA6E0FC0DEFF10C057
:1004B800DDFF8DEC09F047C0F8F248C0F9F2FC6A9C
:1004C800F8C211F0F9C212F06C0EE66E000EE66E7C
:1004D80011C0E6FF12C0E6FFF8EC08F0400E472412
:1004E800D96E010E4820DA6EDE50DE10D8A41BD07B
:1004F80005006C0EE66E000EE66E11C0E6FF12C037
:10050800E6FFF8EC08F0420E4724D96E010E4820A9
:10051800DA6EDECF67F0DDCF68F067C0FDFF68C038
:10052800FEFFFF6ADED06C0EE66E000EE66E11C0AE
:10053800E6FF12C0E6FFF8EC08F0E20E4724D96E99
:10054800000E4820DA6E010EDF6E6C0EE66E000EAD
:10055800E66E11C0E6FF12C0E6FFF8EC08F0DF0E09
:100568004724D96E000E4820DA6EDF50676E675058
:100578006C0EE66E000EE66E11C0E6FF12C0E6FFD6
:10058800F8EC08F0E00E4724D96E000E4820DA6E29
:10059800DF50D86E6C0EE66E000EE66E11C0E6FFF8
:1005A80012C0E6FFF8EC08F0E10E4724D96E000E01
:1005B8004820DA6EDF50E06E6C0EE66E000EE66ED6
:1005C80011C0E6FF12C0E6FFF8EC08F0400E472421
:1005D800D96E010E4820DA6EDECF0FF0DDCF10F0B5
:1005E8007CD005006C0EE66E000EE66E11C0E6FFCC
:1005F80012C0E6FFF8EC08F0DA0E676E000E686EBF
:10060800070E6726000E6822475067264850682262
:10061800030EE66E000EE66E0FC0E6FF10C0E6FFA2
:10062800F8EC08F047506724D96E48506820DA6E15
:10063800DF50FD6E6C0EE66E000EE66E11C0E6FF32
:1006480012C0E6FFF8EC08F0DA0E676E000E686E6E
:10065800080E6726000E6822475067264850682211
:10066800030EE66E000EE66E0FC0E6FF10C0E6FF52
:10067800F8EC08F047506724D96E48506820DA6EC5
:10068800DF50FE6E6C0EE66E000EE66E11C0E6FFE1
:1006980012C0E6FFF8EC08F0DA0E676E000E686E1E
:1006A800060E6726000E68224750672648506822C3
:1006B800030EE66E000EE66E0FC0E6FF10C0E6FF02
:1006C800F8EC08F047506724D96E48506820DA6E75
:1006D800DF50FF6E0F06D8A010060F501010D8A4D8
:1006E80080D78380E0EC05F0F28E78C052F077C0B6
:1006F80051F076C050F075C04FF074C04EF073C022
:100708004DF072C048F071C047F070C0F4FF6FC080
:10071800F3FF6EC0DAFF6DC0D9FF6CC0E2FF6BC09B
:10072800E1FF6AC0EAFF69C0E9FF1100F29EF8C262
:1007380011F0F9C212F011C051F012C052F06C0E53
:100748005102F3CF4FF0F4CF50F05202F35050263D
:10075800E20E4F24D96E000E5020DA6EFF0EE3CF62
:10076800DFFF11C051F012C052F06C0E5102F3CFEE
:100778004FF0F4CF50F05202F3505026DF0E4F24C2
:10078800D96E000E5020DA6EE8CFDFFF11C051F0AD
:1007980012C052F06C0E5102F3CF4FF0F4CF50F06C
:1007A8005202F3505026E00E4F24D96E000E50200E
:1007B800DA6ED8CFDFFF11C051F012C052F06C0EC4
:1007C8005102F3CF4FF0F4CF50F05202F3505026BD
:1007D800E10E4F24D96E000E5020DA6EE0CFDFFF15
:1007E8000F6A106A8DD00FC051F010C052F0030E7E
:1007F8005102F3CF4FF0F4CF50F05202F35050268D
:1008080011C051F012C052F06C0E5102F3CF4DF0EE
:10081800F4CF4EF05202F3504E26DA0E516E000E0F
:10082800526E090E5126000E52224D5051264E503E
:1008380052224F505124D96E50505220DA6EFFCFB9
:10084800DFFF0FC051F010C052F0030E5102F3CF7A
:100858004FF0F4CF50F05202F350502611C051F02F
:1008680012C052F06C0E5102F3CF4DF0F4CF4EF09F
:100878005202F3504E26DA0E516E000E526E0B0ED7
:100888005126000E52224D5051264E5052224F50A2
:100898005124D96E50505220DA6EFECFDFFF0FC0C0
:1008A80051F010C052F0030E5102F3CF4FF0F4CFC5
:1008B80050F05202F350502611C051F012C052F0BD
:1008C8006C0E5102F3CF4DF0F4CF4EF05202F350BC
:1008D8004E26DA0E516E000E526E0A0E5126000E8A
:1008E80052224D5051264E5052224F505124D96E0B
:1008F80050505220DA6EFDCFDFFF0F4A102A060053
:10090800FC50D8A470D711C051F012C052F06C0E30
:100918005102F3CF4FF0F4CF50F05202F35050266B
:10092800400E4F24D96E010E5020DA6E0FC0DEFF44
:1009380010C0DDFFD0EC0BF047C0F8F248C0F9F268
:10094800FC6AF8C211F0F9C212F011C051F012C0DD
:1009580052F06C0E5102F3CF4FF0F4CF50F0520228
:10096800F3505026400E4F24D96E010E5020DA6EF7
:10097800DE50DE10D8A41ED0050011C051F012C000
:1009880052F06C0E5102F3CF4FF0F4CF50F05202F8
:10099800F3505026420E4F24D96E010E5020DA6EC5
:1009A800DECF51F0DDCF52F051C0FDFF52C0FEFF47
:1009B800FF6AFFD011C051F012C052F06C0E510204
:1009C800F3CF4FF0F4CF50F05202F3505026E20E1E
:1009D8004F24D96E000E5020DA6E010EDF6E11C062
:1009E80051F012C052F06C0E5102F3CF4FF0F4CF19
:1009F80050F05202F3505026DF0E4F24D96E000EED
:100A08005020DA6EDF50526E525011C051F012C0B1
:100A180052F06C0E5102F3CF4FF0F4CF50F0520267
:100A2800F3505026E00E4F24D96E000E5020DA6E97
:100A3800DF50D86E11C051F012C052F06C0E510246
:100A4800F3CF4FF0F4CF50F05202F3505026E10E9E
:100A58004F24D96E000E5020DA6EDF50E06E11C0C0
:100A680051F012C052F06C0E5102F3CF4FF0F4CF98
:100A780050F05202F3505026400E4F24D96E010E0A
:100A88005020DA6EDECF0FF0DDCF10F08ED00500EB
:100A98000FC051F010C052F0030E5102F3CF4FF0C7
:100AA800F4CF50F05202F350502611C051F012C04A
:100AB80052F06C0E5102F3CF4DF0F4CF4EF05202CB
:100AC800F3504E26DA0E516E000E526E070E512666
:100AD800000E52224D5051264E5052224F50512452
:100AE800D96E50505220DA6EDF50FD6E0FC051F0B3
:100AF80010C052F0030E5102F3CF4FF0F4CF50F074
:100B08005202F350502611C051F012C052F06C0E30
:100B18005102F3CF4DF0F4CF4EF05202F3504E266F
:100B2800DA0E516E000E526E080E5126000E522239
:100B38004D5051264E5052224F505124D96E50508C
:100B48005220DA6EDF50FE6E0FC051F010C052F026
:100B5800030E5102F3CF4FF0F4CF50F05202F3508E
:100B6800502611C051F012C052F06C0E5102F3CF52
:100B78004DF0F4CF4EF05202F3504E26DA0E516E7D
:100B8800000E526E060E5126000E52224D5051266E
:100B98004E5052224F505124D96E50505220DA6E86
:100BA800DF50FF6E0F06D8A010060F501010D8A403
:100BB8006ED7F28EE5521200E652E652FE0EE36A56
:100BC800FF0EE36A70D0FE0EE3CF51F0FF0EE3CFC5
:100BD80052F06C0E5102F3CF4FF0F4CF50F05202A6
:100BE800F3505026E20E4F24D96E000E5020DA6ED4
:100BF800020EDE18D8A448D0FE0EE3CF51F0FF0E47
:100C0800E3CF52F06C0E5102F3CF4FF0F4CF50F017
:100C18005202F3505026440E4F24D96E010E502034
:100C2800DA6EDE06000EDD5AFE0EE3CF51F0FF0E3F
:100C3800E3CF52F06C0E5102F3CF4FF0F4CF50F0E7
:100C48005202F3505026440E4F24D96E010E502004
:100C5800DA6EDE50DE10D8A417D0FE0EE3CF51F0C6
:100C6800FF0EE3CF52F06C0E5102F3CF4FF0F4CFEA
:100C780050F05202F3505026E20E4F24D96E000E67
:100C88005020DA6E000EDF6EFE0EE350010F476E45
:100C9800FE0E47C0E3FF476AFF0EE3504720476E4A
:100CA800FF0E47C0E3FF22EEF6F0FE0EE3CF47F05B
:100CB800DE50475CFF0EE3CF47F0DE504758D8A020
:100CC80082D7E552E5521200F29EFE0EE3CFD9FF1D
:100CD800FF0EE3CFDAFFDE2A000EDD22FE0EE3CFA1
:100CE800D9FFFF0EE3CFDAFF010EDBBE06D0010EFF
:100CF800DB5065E1DE04D8B062D0FE0EE3CF51F0E0
:100D0800FF0EE3CF52F00C0E5124D96E000E522084
:100D1800DA6EDECF51F0DDCF52F0D89051344F6EFD
:100D28005234506EFE0EE3504F26FF0EE350502211
:100D3800020E4F24D96E000E5020DA6EDECF51F02D
:100D4800DDCF52F06C0E5102F3CF4FF0F4CF50F0DC
:100D58005202F3505026E20E4F24D96E000E502056
:100D6800DA6E000EDF6EFE0EE3CF51F0FF0EE3CF1A
:100D780052F00C0E5124D96E000E5220DA6EDECFDE
:100D880051F0DDCF52F0010E5126000E5222030E13
:100D98005116000E5216FE0EE3CF4FF0FF0EE3CFB2
:100DA80050F00C0E4F24D96E000E5020DA6E51C050
:100DB800DEFF52C0DDFF000EE66E9AEC03F0F28E05
:100DC800E552E55212006C0EE126000EE22222EEF8
:100DD800F6F0DECF51F0DDCF52F0010E5126000EB5
:100DE8005222940E51C0E3FF950E52C0E3FFE1502A
:100DF800920FD96EE250DA6EFF0EDA22960EE124D7
:100E0800E96EFF0EE220EA6EDECFEEFFDDCFEDFFEA
:100E18009C0EE124D96EFF0EE220DA6E000EDF6E22
:100E2800E150900FD96EE250DA6EFF0EDA22FC0E16
:100E3800E124E96EFF0EE220EA6EDECFEEFFDDCFA1
:100E4800EDFFFA0EE124D96EFF0EE220DA6E000EF5
:100E5800DE6E000EDD6EFE0EE124D96EFF0EE2207E
:100E6800DA6E000EDE6E000EDD6E940EE124D96E91
:100E7800FF0EE220DA6E02EEF6F0EECF51F0EDCF83
:100E880052F06C0E5102F3CF4FF0F4CF50F05202F3
:100E9800F3505026DA0E4F24E96E000E5020EA6E09
:100EA8006B0EDBCFEBFFE806FCE222EEF6F0DE2A63
:100EB800000EDD22900EE126FF0EE2221200F29EC5
:100EC800FE0EE3CFD9FFFF0EE3CFDAFFDE06000EFA
:100ED800DD5AFE0EE3CFD9FFFF0EE3CFDAFF010E96
:100EE800DBAE53D022EEF8F0FE0EE3CF51F0FF0E4A
:100EF800E3CF52F00A0E5124E96E000E5220EA6E3A
:100F0800EECF51F0EDCF52F0D89051344F6E5234AD
:100F1800506EFE0EE3504F26FF0EE3505022020E95
:100F28004F24E96E000E5020EA6EDECFEEFFDDCFD3
:100F3800EDFFFE0EE3CF51F0FF0EE3CF52F00A0EA5
:100F48005124D96E000E5220DA6EDECF51F0DDCF7B
:100F580052F0010E5126000E5222030E5116000EB9
:100F68005216FE0EE3CF4FF0FF0EE3CF50F00A0EFD
:100F78004F24D96E000E5020DA6E51C0DEFF52C0E9
:100F8800DDFF050EE66E9AEC03F0F28EE552E552AF
:100F98001200E652E652E652E652020E476EFF0E85
:100FA80047C0E3FFFA0E476EFE0E47C0E3FFFF0E91
:100FB800516E010E526EFC0E51C0E3FFFD0E52C081
:100FC800E3FFFD0EE35007E1FC0EE3CF47F0800E90
:100FD800475ED8A023D0FE0EE3CFD9FFFF0EE3CFA4
:100FE800DAFF7F0EDF6EFE0EE3507F0F476EFE0EB8
:100FF80047C0E3FF476AFF0EE3504720476EFF0EE6
:1010080047C0E3FFE150FC0FD96EE250DA6EFF0EE5
:10101800DA22810EDE26FF0EDD22D3D7FE0EE3CFC5
:10102800D9FFFF0EE3CFDAFFFC0EE3CFDFFFFC0EA4
:10103800E3CF51F0FD0EE3CF52F0FE0EE3CF4FF0B9
:10104800FF0EE3CF50F051504F24D96E525050202C
:10105800DA6E000EDF6EE552E552E552E5521200F7
:10106800FE0EE3CF51F0FF0EE3CF52F0020E5124F3
:10107800D96E000E5220DA6E000EDE6E000EDD6EA6
:10108800FE0EE3CF51F0FF0EE3CF52F0040E5124D1
:10109800D96E000E5220DA6E000EDE6E000EDD6E86
:1010A800FE0EE3CF51F0FF0EE3CF52F0060E5124AF
:1010B800D96E000E5220DA6E000EDE6E000EDD6E66
:1010C800E150FC0FD96EE250DA6EFF0EDA22FE0E06
:1010D800E3CF51F0FF0EE3CF52F0080E5124E96E32
:1010E800000E5220EA6EDECFEEFFDDCFEDFF000EE0
:1010F800E66E000EE66EFC0EE3CF51F0FD0EE3CF78
:1011080052F0080E5124D96E000E5220DA6EDECF4E
:1011180051F0DDCF52F051C0E6FF52C0E6FF9CEC23
:101128000AF0E552E552E552E5521200E652FB0E8E
:10113800E3CF47F0FC0EE3504710D8B44AD0FF0E77
:10114800E36A10D0FB0EE350D890E834476EFB0EEC
:1011580047C0E3FFFC0EE350E834476EFC0E47C07F
:10116800E3FFFF0EE32AFC0EE3AEECD7FB0EE3CF62
:1011780051F0FC0EE3CF52F0FD0EE3CF4FF0FE0E20
:10118800E3CF50F051504F5C52505058D8A012D075
:10119800FD0EE350476EFB0EE350475EFD0E47C061
:1011A800E3FFFE0EE350476EFC0EE350475AFE0E77
:1011B80047C0E3FFD890FC0EE332FB0EE332FF0E8C
:1011C800E350476E010E475EFF0E47C0E3FFD8A409
:1011D800CDD7FD0EE3CF47F0FE0EE3CF48F0FB0E70
:1011E800E126FF0EE2221200E652E652FA0EE3CFA3
:1011F80052F0FC0EE3505202FE0EF3CFE3FFFF0E57
:10120800F4CFE3FFFB0EE124D96EFF0EE220DA6E85
:10121800DF50526EFC0EE3505202F3CFF4FFF36A34
:10122800E150FE0FD96EE250DA6EFF0EDA22F3506B
:10123800DE26F450DD22FA0EE3CF52F0FD0EE12453
:10124800D96EFF0EE220DA6EDF505202F3CFF4FFC0
:10125800F36AE150FE0FD96EE250DA6EFF0EDA2221
:10126800F350DE26F450DD22FE0EE3CF47F0FF0EEA
:10127800E3CF48F0FA0EE126FF0EE222120093684F
:10128800946A956A010EE66E000EE66E8E0EE66EA4
:10129800000EE66E9CEC0AF08E0EE66E000EE66E10
:1012A8003D0EE66E000EE66E34EC08F0010EE66EBA
:1012B800000EE66E800EE66E000EE66E9CEC0AF0FE
:1012C800800EE66E000EE66EC60EE66E000EE66E48
:1012D80034EC08F0010EE66E000EE66E2F0EE66E98
:1012E800000EE66E9CEC0AF0010EE66E000EE66E4D
:1012F800210EE66E000EE66E9CEC0AF0010EE66E1C
:10130800000EE66E130EE66E000EE66E9CEC0AF01A
:101318001200E652E652FE0EF8C2E3FFFF0EF9C2D3
:10132800E3FF22EEF6F0DECF51F0DDCF52F051C0F0
:10133800E6FF52C0E6FFFC0EE350010F516EFD0EB2
:10134800E3CF52F0000E522251C0E6FF52C0E6FF32
:101358009AEC08F0FE0E47C0E3FFFF0E48C0E3FF1B
:10136800FE0EE3CF51F0FF0EE3CF52F06C0E5102A8
:10137800F3CF4FF0F4CF50F05202F3505026E20E64
:101388004F24D96E000E5020DA6EDF50D8A4C9D78A
:10139800FE0EE3CF47F0FF0EE3CF48F0E552E552EB
:1013A8001200E652E652FE0EE36AFF0EE36A21D00F
:1013B800FC0EE350476EFA0EE350475EFC0E47C042
:1013C800E3FFFD0EE350476EFB0EE350475AFD0E58
:1013D80047C0E3FFFE0EE350010F476EFE0E47C005
:1013E800E3FF476AFF0EE3504720476EFF0E47C0F2
:1013F800E3FFE150FC0FD96EE250DA6EFF0EDA22FD
:10140800FA0EE350DE5CDE50800A476EFB0EE350B6
:10141800800A4758D8B0CCD7FE0EE3CF47F0FF0E6E
:10142800E3CF48F0FA0EE126FF0EE222120017D0B1
:101438003F0E13D0060E11D05B0E0FD04F0E0DD0FD
:10144800660E0BD06D0E09D07D0E07D0070E05D0A5
:101458007F0E03D06F0E01D0790E826E2AD0FE0E59
:10146800E3CF51F0FF0EE3CF52F05250000AD8A458
:10147800F3D75150000AD8B4DBD7010AD8B4DAD769
:10148800030AD8B4D9D7010AD8B4D8D7070AD8B428
:10149800D7D7010AD8B4D6D7030AD8B4D5D7010A02
:1014A800D8B4D4D70F0AD8B4D3D7010AD8B4D2D76E
:1014B800D3D7E552E5521200E652E652FC0EE3CFCE
:1014C80047F0FE0E47C0E3FFFD0EE3CF47F00FD015
:1014D800FE0EE350476EFA0EE350475EFE0E47C01D
:1014E800E3FFFF0EE350476EFB0EE350475AFF0E33
:1014F80047C0E3FFE150FE0FD96EE250DA6EFF0EEF
:10150800DA22FA0EE350DE5CDE50800A476EFB0EEC
:10151800E350800A4758D8B0DBD7FE0EE3CF47F038
:10152800FF0EE3CF48F0FA0EE126FF0EE22212008A
:10153800F29EE150FC0FD96EE250DA6EFF0EDA220D
:10154800FE0EE3CFE9FFFF0EE3CFEAFFDECFEEFFAB
:10155800DDCFEDFFFE0EE3CF51F0FF0EE3CF52F0EB
:101568000A0E5124D96E000E5220DA6E000EDE6E7D
:10157800000EDD6EFE0EE3CF51F0FF0EE3CF52F00A
:101588000C0E5124D96E000E5220DA6E000EDE6E5B
:10159800000EDD6EF28EE552E552E552E55212007C
:1015A80081BAFED781B82CD0130EE66E000EE66E17
:1015B80063EC07F0000E0C6E010E0B6E130EE66E58
:1015C800000EE66E68EC06F0210EE66E000EE66E82
:1015D80063EC07F02F0EE66E000EE66E63EC07F084
:1015E80007C009F008C00AF02F0EE66E000EE66E7E
:1015F80068EC06F0210EE66E000EE66E68EC06F06A
:10160800640EE66E000EE66E0BEC0BF0C9D7F29E88
:10161800E150FE0FD96EE250DA6EFF0EDA2202EECA
:10162800F8F0EECF51F0EDCF52F06C0E5102F3CF3F
:101638004FF0F4CF50F05202F3505026440E4F248E
:10164800E96E010E5020EA6EDECFEEFFDDCFEDFF32
:10165800020EE66E9AEC03F0F28EE552E5521200A5
:10166800AA0EF66E170EF76E000EF86E0900F5CF8B
:1016780079F00900F5CF7AF000EEDAF024EE20F0E8
:10168800EE6ADD50D950FCE1DA50FAE100EE80F064
:101698005A0EEE6AE806FDE100EE01F0460EEE6A2B
:1016A800E806FDE1000EF86E00015BEF0BF07CEC44
:1016B8000BF0BDEC0BF0C7EC0BF043EC09F0A80EF7
:1016C800E66E150EE66E050EE66E000EE66EE7ECAB
:1016D80006F05A0EE66E170EE66E050EE66E000E62
:1016E800E66EE7EC06F0000EE66E9AEC03F0FFD724
:1016F800CDEC07F0000EE8CFF8F2000EE8CFF9F2D3
:10170800000EE8CFF6F2000EE8CFF7F2A60EE66E6E
:10171800170EE66E000EE66E000EE66EE7EC06F0BB
:1017280012000D4A0E2A0D040E10D8A408D0838288
:1017380005C0E6FF06C0E6FF1BEC0AF01200839224
:1017480003C0E6FF04C0E6FF1BEC0AF00D6A0E6A50
:1017580012000B040C10D8A402D0838402D0839406
:1017680081988386640EE66E000EE66E0BEC0BF035
:10177800F0D79590F28EF28CF28CF288F288F29281
:10178800F19EF18C1200D59AD596070ED512F28CDF
:10179800F28AFC0ED66E12008DEC09F0120000F0F1
:0417A800FED70A005E
:020000040020DA
:08000000FFFFFFFFFFFFFFFF00
:020000040030CA
:0E000000FF071F1EFF8185FF0FC00FE00F409E
:00000001FF
